:100000000C942A000C943F000C943F000C943F0089
:100010000C943F000C943F000C943F000C943F0064
:100020000C943F000C943F000C943F000C943F0054
:100030000C943F000C943F000C943F000C943F0044
:100040000C943F000C943F000C943F000C943F0034
:100050000C943F0011241FBECFE5D8E0DEBFCDBF1A
:1000600010E0A0E6B0E0E2EAF0E302C005900D92F5
:10007000A838B107D9F70E9492170C944F180C9426
:100080000000EF92FF920F931F937B018C0120E001
:1000900030E040E05FE40E94ED0388238CF0C8016B
:1000A000B70120E030E040E05FE40E94B9010E9427
:1000B0004D049B01AC01205030404040504806C0E8
:1000C000C801B7010E944D049B01AC01B901CA01EE
:1000D0001F910F91FF90EF900895A0E0B0E0E3E74B
:1000E000F0E00C941818DC012B01FA019C9192307D
:1000F00008F439C1EB018881823008F433C19430AF
:1001000069F4843009F02FC111969C91119789816F
:10011000981709F428C1A0E7B0E025C1843009F49C
:1001200021C18230A9F4923009F01DC19A01AD01BC
:1001300088E0EA010990AE01E90109929E0181502F
:10014000C1F7E201898111969C918923818308C1BD
:10015000923009F407C112962D903C901397EB0151
:100160008A819B811496AD90BD90CD90DC901797BD
:10017000EC80FD800E811F819101281B390BB90194
:1001800037FF04C066277727621B730B6032710547
:100190000CF061C0121613066CF537014801062EEB
:1001A00004C096948794779467940A94D2F721E0D8
:1001B00030E040E050E004C0220F331F441F551FC1
:1001C0006A95D2F721503040404050402E213F21C7
:1001D00040235123211531054105510521F021E02E
:1001E00030E040E050E079018A01E628F72808294C
:1001F00019293CC0232BD1F1260E371E35014601AB
:10020000062E04C096948794779467940A94D2F744
:1002100021E030E040E050E004C0220F331F441FD3
:10022000551F6A95D2F721503040404050402A2156
:100230003B214C215D21211531054105510521F05E
:1002400021E030E040E050E059016A01A628B728DB
:10025000C828D9280BC0821593052CF01C01AA24AC
:10026000BB24650103C0EE24FF24870111969C91F5
:10027000D20111968C91981709F445C0992339F051
:10028000A80197012A193B094C095D0906C0A6017E
:1002900095012E193F09400B510B57FD08C01182E3
:1002A0003382228224833583468357831DC081E0B5
:1002B00081833382228288279927DC01821B930B5A
:1002C000A40BB50B84839583A683B7830DC0220F3F
:1002D000331F441F551F24833583468357838281F0
:1002E000938101979383828324813581468157814D
:1002F000DA01C9010197A109B1098F5F9F4FAF4F83
:10030000BF4328F30BC0918333822282EA0CFB1C8B
:100310000C1D1D1DE482F5820683178383E0808314
:10032000248135814681578157FF1AC0C901AA2708
:1003300097FDA095BA2F81709070A070B0705695FF
:10034000479537952795822B932BA42BB52B848328
:100350009583A683B7838281938101969383828359
:10036000DF0101C0D201CD01CDB7DEB7E2E10C94CF
:100370003418A0E2B0E0EFEBF1E00C9424186983AC
:100380007A838B839C832D833E834F835887E9E058
:10039000EE2EF12CEC0EFD1ECE010196B7010E944F
:1003A00076058E010F5E1F4FCE010596B8010E94A3
:1003B00076058A8991E089278A8BC701B801AE0149
:1003C000475E5F4F0E946D000E94A104A096E6E088
:1003D0000C944018A0E2B0E0E0EFF1E00C94241897
:1003E00069837A838B839C832D833E834F835887D5
:1003F000F9E0EF2EF12CEC0EFD1ECE010196B701B7
:100400000E9476058E010F5E1F4FCE010596B80142
:100410000E947605C701B801AE01475E5F4F0E949A
:100420006D000E94A104A096E6E00C944018A0E2A2
:10043000B0E0EDE1F2E00C94181869837A838B83C5
:100440009C832D833E834F835887CE010196BE0146
:10045000675F7F4F0E947605CE010596BE016F5EF5
:100460007F4F0E9476059985923088F08989823085
:10047000C8F0943019F4823051F404C0843029F467
:10048000923081F480E790E0C6C0923049F420E0D9
:100490009A858A89981321E02A87CE010996BBC0E4
:1004A000823049F420E09A858A89981321E02A8BCA
:1004B000CE014196B0C02D843E844F8458886D880B
:1004C0007E888F88988CEE24FF248701AA24BB2481
:1004D000650140E050E060E070E0E0E0F0E0C10184
:1004E00081709070892BE9F0E60CF71C081D191D2E
:1004F0009A01AB012A0D3B1D4C1D5D1D80E090E073
:10050000A0E0B0E0E614F7040805190520F481E046
:1005100090E0A0E0B0E0BA01A901480F591F6A1F9E
:100520007B1FAA0CBB1CCC1CDD1C97FE08C081E005
:1005300090E0A0E0B0E0A82AB92ACA2ADB2A3196C6
:10054000E032F10549F0660C771C881C991C569422
:10055000479437942794C3CFFA85EA892B893C893D
:100560008B859C85280F391F2E5F3F4F17C0CA010E
:1005700081709070892B61F016950795F794E79438
:1005800080E090E0A0E0B0E8E82AF92A0A2B1B2BD3
:1005900076956795579547952F5F3F4F77FDE7CF46
:1005A0000CC0440F551F661F771F17FD4160EE0CEE
:1005B000FF1C001F111F21503040403090E05907B0
:1005C00090E0690790E4790760F32B8F3C8FDB01A3
:1005D000CA018F779070A070B07080349105A1052A
:1005E000B10561F447FD0AC0E114F10401051105EC
:1005F00029F0405C5F4F6F4F7F4F40781A8EFE1797
:1006000011F081E08A8F4D8F5E8F6F8F78A383E02A
:10061000898FCE0149960E94A104A096E2E10C9434
:100620003418A8E1B0E0E7E1F3E00C942018698306
:100630007A838B839C832D833E834F835887B9E0D5
:10064000EB2EF12CEC0EFD1ECE010196B7010E949F
:1006500076058E010F5E1F4FCE010596B8010E94F0
:1006600076052985223008F47EC03989323010F4AD
:10067000B8017CC08A859A8989278A87243011F03D
:10068000223031F4231709F06EC060E770E06EC0CD
:10069000343039F41D861E861F86188A1C861B86F8
:1006A00004C0323021F484E08987B7015FC02B8514
:1006B0003C858B899C89281B390B3C872B87ED84D3
:1006C000FE840F851889AD88BE88CF88D88CEA143F
:1006D000FB040C051D0540F4EE0CFF1C001F111F50
:1006E000215030403C872B8720E030E040E050E054
:1006F00080E090E0A0E0B0E460E070E0EA14FB0489
:100700000C051D0540F0282B392B4A2B5B2BEA18D2
:10071000FB080C091D09B695A79597958795EE0CD2
:10072000FF1C001F111F6F5F7F4F6F31710531F785
:10073000DA01C9018F779070A070B0708034910594
:10074000A105B10561F427FD0AC0E114F10401051A
:10075000110529F0205C3F4F4F4F5F4F20782D87C8
:100760003E874F87588BBE01675F7F4FCB010E944A
:10077000A1046896EAE00C943C18A8E1B0E0E3EC30
:10078000F3E00C94241869837A838B839C832D83F4
:100790003E834F83588789E0E82EF12CEC0EFD1E36
:1007A000CE010196B7010E9476058E010F5E1F4FA4
:1007B000CE010596B8010E9476058985823040F009
:1007C0008989823028F0C701B8010E94EE0501C076
:1007D0008FEF6896E6E00C944018A8E1B0E0E3EFF4
:1007E000F3E00C94241869837A838B839C832D8394
:1007F0003E834F83588789E0E82EF12CEC0EFD1ED6
:10080000CE010196B7010E9476058E010F5E1F4F43
:10081000CE010596B8010E9476058985823040F0A8
:100820008989823028F0C701B8010E94EE0501C015
:100830008FEF6896E6E00C944018A8E1B0E0E3E2A0
:10084000F4E00C94241869837A838B839C832D8332
:100850003E834F83588789E0E82EF12CEC0EFD1E75
:10086000CE010196B7010E9476058E010F5E1F4FE3
:10087000CE010596B8010E9476058985823040F048
:100880008989823028F0C701B8010E94EE0501C0B5
:1008900081E06896E6E00C944018ACE0B0E0E3E557
:1008A000F4E00C94281869837A838B839C83CE01AF
:1008B0000196BE016B5F7F4F0E9476058D8182306D
:1008C00061F1823050F1843021F48E81882351F11E
:1008D0002EC02F81388537FD20C06E812F31310524
:1008E0001CF06623F9F023C08EE190E0821B930B8D
:1008F00029853A854B855C8504C056954795379583
:1009000027958A95D2F76623B1F05095409530959A
:1009100021953F4F4F4F5F4F0EC020E030E040E049
:1009200050E009C02FEF3FEF4FEF5FE704C020E03A
:1009300030E040E050E8B901CA012C96E2E00C94A6
:100940004418DF92EF92FF920F931F93FC01E48013
:10095000F58006811781D1808081823048F480E063
:1009600090E0A0E1B0E0E82AF92A0A2B1B2BA5C0F1
:10097000843009F49FC0823021F4EE24FF248701E3
:1009800005C0E114F1040105110519F4E0E0F0E0FF
:1009900096C0628173819FEF623879070CF05BC06B
:1009A00022E83FEF261B370B2A3131052CF020E0DF
:1009B00030E040E050E02AC0B801A701022E04C098
:1009C00076956795579547950A94D2F781E090E020
:1009D000A0E0B0E004C0880F991FAA1FBB1F2A9592
:1009E000D2F70197A109B1098E219F21A023B1233C
:1009F0000097A105B10521F081E090E0A0E0B0E012
:100A00009A01AB01282B392B4A2B5B2BDA01C90148
:100A10008F779070A070B07080349105A105B105FA
:100A200039F427FF09C0205C3F4F4F4F5F4F04C090
:100A3000215C3F4F4F4F5F4FE0E0F0E02030A0E0FF
:100A40003A07A0E04A07A0E45A0710F0E1E0F0E01E
:100A500079018A0127C06038710564F5FB01E1580E
:100A6000FF4FD801C7018F779070A070B0708034AD
:100A70009105A105B10539F4E7FE0DC080E490E0D1
:100A8000A0E0B0E004C08FE390E0A0E0B0E0E80EAA
:100A9000F91E0A1F1B1F17FF05C016950795F7942F
:100AA000E794319687E016950795F794E7948A9531
:100AB000D1F705C0EE24FF248701EFEFF0E06E2FA1
:100AC000679566276795902F9F77D794DD24D794F5
:100AD0008E2F8695492F462B582F5D29B701CA01C5
:100AE0001F910F91FF90EF90DF900895FC01DB01C3
:100AF000408151812281622F6F7770E0221F22276F
:100B0000221F9381892F880F822B282F30E0991F75
:100B10009927991F11969C93119721153105A9F5D5
:100B2000411551056105710511F482E037C082E875
:100B30009FEF13969C938E9312979A01AB0167E0F7
:100B4000220F331F441F551F6A95D1F783E08C9302
:100B50000DC0220F331F441F551F12968D919C917B
:100B60001397019713969C938E931297203080E0F1
:100B7000380780E0480780E4580758F314962D930F
:100B80003D934D935C93179708952F3F310579F46A
:100B9000411551056105710519F484E08C930895A0
:100BA00064FF03C081E08C9312C01C9210C02F57C9
:100BB000304013963C932E93129783E08C9387E0FA
:100BC000440F551F661F771F8A95D1F770641496DE
:100BD0004D935D936D937C93179708951F93DC015C
:100BE000FB019C91923008F447C08081823008F468
:100BF00043C0943051F411961C91843099F5818151
:100C0000682F70E0611B71093FC0843021F0923081
:100C100031F48230B9F18181882389F12DC0119698
:100C20001C9111978230F1F081811817D9F4129636
:100C30002D913C911397828193818217930794F0B1
:100C400028173907BCF014968D919D910D90BC9199
:100C5000A02D2481358146815781281739074A07FD
:100C60005B0718F4112341F00AC082179307A40709
:100C7000B50740F4112319F061E070E005C06FEF93
:100C80007FEF02C060E070E0CB011F910895DF9319
:100C9000CF93CDB7DEB72E970FB6F894DEBF0FBE59
:100CA000CDBF80E090E0A0E2B2E48B879C87AD8767
:100CB000BE876B857C858D859E8520E030E04AEF80
:100CC00054E40E941702DC01CB018F839887A98727
:100CD000BA876F81788589859A8520E030E040E881
:100CE0005FE30E941D0488232CF481E090E09E8342
:100CF0008D833FC06F81788589859A8520E03FEF9D
:100D00004FE757E40E94BD0318164CF56B857C85B0
:100D10008D859E8520E030E040E251E40E9417027C
:100D2000DC01CB01BC01CD010E944100DC01CB0103
:100D30009E838D830FC088EC90E09C838B838B8196
:100D40009C810197F1F79C838B838D819E81019714
:100D50009E838D838D819E81009769F714C06F817A
:100D6000788589859A850E944100DC01CB019E83AC
:100D70008D838D819E819A83898389819A81019750
:100D8000F1F79A83898381E061E00E940F1481E08A
:100D900060E00E94BD150E94080782E00E94CD0815
:100DA00088E20E94CD0886E00E94CD0880E80E947B
:100DB000CD088FE00E94CD080E94BA0F2E960FB684
:100DC000F894DEBF0FBECDBFCF91DF910895DF93C2
:100DD000CF9300D0CDB7DEB789836A83898188231A
:100DE00041F48A81803178F48A8180580E94CD084C
:100DF0000AC08981813039F48A81803120F48A8166
:100E000080540E94CD080F900F90CF91DF910895EC
:100E1000DF93CF93CDB7DEB7E4970FB6F894DEBF7C
:100E20000FBECDBF80E090E0A0E2B2E489AB9AAB08
:100E3000ABABBCAB69A97AA98BA99CA920E030E037
:100E40004AEF54E40E941702DC01CB018DA79EA754
:100E5000AFA7B8AB6DA57EA58FA598A920E030E01F
:100E600040E85FE30E941D0488232CF481E090E0B9
:100E70009CA78BA73FC06DA57EA58FA598A920E054
:100E80003FEF4FE757E40E94BD0318164CF569A9E0
:100E90007AA98BA99CA920E030E040E251E40E94AD
:100EA0001702DC01CB01BC01CD010E944100DC0135
:100EB000CB019CA78BA70FC088EC90E09AA789A7CD
:100EC00089A59AA50197F1F79AA789A78BA59CA553
:100ED00001979CA78BA78BA59CA5009769F714C0C9
:100EE0006DA57EA58FA598A90E944100DC01CB01CC
:100EF0009CA78BA78BA59CA598A78FA38FA198A52E
:100F00000197F1F798A78FA381E060E00E94BD15DB
:100F100080E090E0A0EAB0E48BA39CA3ADA3BEA3C5
:100F20006BA17CA18DA19EA120E030E04AEF54E4AA
:100F30000E941702DC01CB018F8F98A3A9A3BAA34B
:100F40006F8D78A189A19AA120E030E040E85FE3AD
:100F50000E941D0488232CF481E090E09E8F8D8FE9
:100F60003FC06F8D78A189A19AA120E03FEF4FE7A4
:100F700057E40E94BD0318164CF56BA17CA18DA10E
:100F80009EA120E030E040E251E40E941702DC0123
:100F9000CB01BC01CD010E944100DC01CB019E8F41
:100FA0008D8F0FC088EC90E09C8F8B8F8B8D9C8DEC
:100FB0000197F1F79C8F8B8F8D8D9E8D01979E8F62
:100FC0008D8F8D8D9E8D009769F714C06F8D78A1E0
:100FD00089A19AA10E944100DC01CB019E8F8D8FD7
:100FE0008D8D9E8D9A8F898F898D9A8D0197F1F7BE
:100FF0009A8F898F81E060E00E94BD1580E090E0CB
:10100000A0EFB2E48D8B9E8BAF8BB88F6D897E89FC
:101010008F89988D2BEA3AEA4AE250E40E9417023F
:10102000DC01CB01898B9A8BAB8BBC8B69897A896C
:101030008B899C8920E030E040E85FE30E941D043A
:1010400088231CF481E0888B91C069897A898B8917
:101050009C8920E030E04FE753E40E94BD0318165E
:101060000CF07BC06D897E898F89988D20E030E0FF
:101070004AE754E40E941103DC01CB018C879D8771
:10108000AE87BF876C857D858E859F8520E030E0AB
:101090004AEF54E40E941702DC01CB01888799874C
:1010A000AA87BB87688579858A859B8520E030E0A3
:1010B00040E85FE30E941D0488232CF481E090E067
:1010C0009F838E833FC0688579858A859B8520E0D4
:1010D0003FEF4FE757E40E94BD0318164CF56C85AF
:1010E0007D858E859F8520E030E040E251E40E94BE
:1010F0001702DC01CB01BC01CD010E944100DC01E3
:10110000CB019F838E830FC088EC90E09D838C83FE
:101110008C819D810197F1F79D838C838E819F81C6
:1011200001979F838E838E819F81009769F724C0EA
:10113000688579858A859B850E944100DC01CB0109
:101140009F838E838E819F819B838A838A819B81EB
:101150000197F1F79B838A830FC069897A898B890C
:101160009C890E944100DC01CB01888B888989839E
:1011700089818A95F1F7898381E060E00E94BD153D
:1011800081E060E00E94BD15E4960FB6F894DEBFE2
:101190000FBECDBFCF91DF9108950F931F93DF93C3
:1011A000CF93CDB7DEB7C754D0400FB6F894DEBFAB
:1011B0000FBECDBFFE01E95BFF4F8083FE01ED5BFB
:1011C000FF4F80E090E0A0E2B1E480839183A283AE
:1011D000B3838E01015C1F4FFE01ED5BFF4F608109
:1011E00071818281938120E030E04AEF54E40E94D3
:1011F0001702DC01CB01F80180839183A283B383C2
:10120000FE01FF96608171818281938120E030E050
:1012100040E85FE30E941D0488232CF481E090E005
:101220009EAF8DAF46C0FE01FF96608171818281C5
:10123000938120E03FEF4FE757E40E94BD0318166B
:1012400064F5FE01ED5BFF4F6081718182819381C6
:1012500020E030E040E251E40E941702DC01CB01C3
:10126000BC01CD010E944100DC01CB019EAF8DAFDE
:101270000FC088EC90E09CAF8BAF8BAD9CAD01971D
:10128000F1F79CAF8BAF8DAD9EAD01979EAF8DAF4B
:101290008DAD9EAD009769F716C0FE01FF96608187
:1012A0007181828193810E944100DC01CB019EAF5C
:1012B0008DAF8DAD9EAD9AAF89AF89AD9AAD0197D7
:1012C000F1F79AAF89AFFE01E95BFF4F8081807F24
:1012D0008160982F81E0692F0E94BD1581E061E057
:1012E00040E00E949C1481E063E041E00E949C1475
:1012F00080E090E0A0E8BFE38DAB9EABAFABB8AFB2
:101300006DA97EA98FA998AD20E030E04AEF54E4A2
:101310000E941702DC01CB0189AB9AABABABBCAB33
:1013200069A97AA98BA99CA920E030E040E85FE395
:101330000E941D0488232CF481E090E098AB8FA7D5
:101340003FC069A97AA98BA99CA920E03FEF4FE78C
:1013500057E40E94BD0318164CF56DA97EA98FA90C
:1013600098AD20E030E040E251E40E941702DC0139
:10137000CB01BC01CD010E944100DC01CB0198AB47
:101380008FA70FC088EC90E09EA78DA78DA59EA586
:101390000197F1F79EA78DA78FA598A9019798AB04
:1013A0008FA78FA598A9009769F714C069A97AA992
:1013B0008BA99CA90E944100DC01CB0198AB8FA7AF
:1013C0008FA598A99CA78BA78BA59CA50197F1F742
:1013D0009CA78BA781E063E040E00E949C1480E022
:1013E00090E0A0E8BFE38FA398A7A9A7BAA76FA131
:1013F00078A589A59AA520E030E04AEF54E40E9440
:101400001702DC01CB018BA39CA3ADA3BEA36BA1F0
:101410007CA18DA19EA120E030E040E85FE30E9426
:101420001D0488232CF481E090E09AA389A33FC097
:101430006BA17CA18DA19EA120E03FEF4FE757E477
:101440000E94BD0318164CF56FA178A589A59AA531
:1014500020E030E040E251E40E941702DC01CB01C1
:10146000BC01CD010E944100DC01CB019AA389A3FC
:101470000FC088EC90E098A38F8F8F8D98A1019773
:10148000F1F798A38F8F89A19AA101979AA389A3B5
:1014900089A19AA1009769F714C06BA17CA18DA1C5
:1014A0009EA10E944100DC01CB019AA389A389A1DE
:1014B0009AA19E8F8D8F8D8D9E8D0197F1F79E8FB6
:1014C0008D8FFE01E95BFF4F8081882F90E0829530
:1014D0009295907F9827807F98278160982F81E050
:1014E000692F0E94BD1581E061E040E00E949C14DC
:1014F00081E063E041E00E949C1480E090E0A0E87D
:10150000BFE3898F9A8FAB8FBC8F698D7A8D8B8D5E
:101510009C8D20E030E04AEF54E40E941702DC0189
:10152000CB018D8B9E8BAF8BB88F6D897E898F8918
:10153000988D20E030E040E85FE30E941D0488239E
:101540002CF481E090E09C8B8B8B3FC06D897E8971
:101550008F89988D20E03FEF4FE757E40E94BD034D
:1015600018164CF5698D7A8D8B8D9C8D20E030E0BE
:1015700040E251E40E941702DC01CB01BC01CD0125
:101580000E944100DC01CB019C8B8B8B0FC088EC4F
:1015900090E09A8B898B89899A890197F1F79A8BC8
:1015A000898B8B899C8901979C8B8B8B8B899C89E0
:1015B000009769F714C06D897E898F89988D0E9484
:1015C0004100DC01CB019C8B8B8B8B899C89988B98
:1015D0008F878F8598890197F1F7988B8F8781E0A6
:1015E00063E040E00E949C1480E090E0A0E0B0E462
:1015F0008B879C87AD87BE876B857C858D859E8517
:1016000020E030E04AEF54E40E941702DC01CB01F5
:101610008F839887A987BA876F81788589859A850E
:1016200020E030E040E85FE30E941D0488232CF4B2
:1016300081E090E09E838D833FC06F8178858985AE
:101640009A8520E03FEF4FE757E40E94BD0318164C
:101650004CF56B857C858D859E8520E030E040E2F1
:1016600051E40E941702DC01CB01BC01CD010E94B4
:101670004100DC01CB019E838D830FC088EC90E09C
:101680009C838B838B819C810197F1F79C838B8357
:101690008D819E8101979E838D838D819E81009790
:1016A00069F714C06F81788589859A850E94410009
:1016B000DC01CB019E838D838D819E819A838983FA
:1016C00089819A810197F1F79A838983C95BDF4FFA
:1016D0000FB6F894DEBF0FBECDBFCF91DF911F9143
:1016E0000F910895DF93CF93CDB7DEB7E9970FB68B
:1016F000F894DEBF0FBECDBF89AF89AD807F81601A
:10170000982F81E0692F0E94BD1581E061E041E0E2
:101710000E949C1481E063E041E00E949C1480E000
:1017200090E0A0E8BFE38DAB9EABAFABB8AF6DA9C7
:101730007EA98FA998AD20E030E04AEF54E40E94E2
:101740001702DC01CB0189AB9AABABABBCAB69A98F
:101750007AA98BA99CA920E030E040E85FE30E94D1
:101760001D0488232CF481E090E098AB8FA73FC044
:1017700069A97AA98BA99CA920E03FEF4FE757E41C
:101780000E94BD0318164CF56DA97EA98FA998ADCE
:1017900020E030E040E251E40E941702DC01CB017E
:1017A000BC01CD010E944100DC01CB0198AB8FA7A9
:1017B0000FC088EC90E09EA78DA78DA59EA50197F0
:1017C000F1F79EA78DA78FA598A9019798AB8FA732
:1017D0008FA598A9009769F714C069A97AA98BA960
:1017E0009CA90E944100DC01CB0198AB8FA78FA57B
:1017F00098A99CA78BA78BA59CA50197F1F79CA7FF
:101800008BA781E063E040E00E949C1480E090E0C0
:10181000A0E8BFE38FA398A7A9A7BAA76FA178A54F
:1018200089A59AA520E030E04AEF54E40E9417020F
:10183000DC01CB018BA39CA3ADA3BEA36BA17CA1B8
:101840008DA19EA120E030E040E85FE30E941D04EE
:1018500088232CF481E090E09AA389A33FC06BA178
:101860007CA18DA19EA120E03FEF4FE757E40E94AD
:10187000BD0318164CF56FA178A589A59AA520E09F
:1018800030E040E251E40E941702DC01CB01BC01D0
:10189000CD010E944100DC01CB019AA389A30FC0B6
:1018A00088EC90E098A38F8F8F8D98A10197F1F726
:1018B00098A38F8F89A19AA101979AA389A389A13F
:1018C0009AA1009769F714C06BA17CA18DA19EA17C
:1018D0000E944100DC01CB019AA389A389A19AA1AE
:1018E0009E8F8D8F8D8D9E8D0197F1F79E8F8D8FA1
:1018F00089AD882F90E082959295907F9827807F80
:1019000098278160982F81E0692F0E94BD1581E0A2
:1019100061E041E00E949C1481E063E041E00E94AC
:101920009C1480E090E0A0E8BFE3898F9A8FAB8F92
:10193000BC8F698D7A8D8B8D9C8D20E030E04AEFD5
:1019400054E40E941702DC01CB018D8B9E8BAF8B80
:10195000B88F6D897E898F89988D20E030E040E8CE
:101960005FE30E941D0488232CF481E090E09C8BAF
:101970008B8B3FC06D897E898F89988D20E03FEFEA
:101980004FE757E40E94BD0318164CF5698D7A8D18
:101990008B8D9C8D20E030E040E251E40E941702E4
:1019A000DC01CB01BC01CD010E944100DC01CB0177
:1019B0009C8B8B8B0FC088EC90E09A8B898B8989EC
:1019C0009A890197F1F79A8B898B8B899C8901976A
:1019D0009C8B8B8B8B899C89009769F714C06D89D0
:1019E0007E898F89988D0E944100DC01CB019C8B00
:1019F0008B8B8B899C89988B8F878F859889019792
:101A0000F1F7988B8F8781E063E040E00E949C149F
:101A100080E090E0A0E8BFE38B879C87AD87BE871E
:101A20006B857C858D859E8520E030E04AEF54E40F
:101A30000E941702DC01CB018F839887A987BA87A0
:101A40006F81788589859A8520E030E040E85FE302
:101A50000E941D0488232CF481E090E09E838D83F6
:101A60003FC06F81788589859A8520E03FEF4FE7F9
:101A700057E40E94BD0318164CF56B857C858D8557
:101A80009E8520E030E040E251E40E941702DC0134
:101A9000CB01BC01CD010E944100DC01CB019E8342
:101AA0008D830FC088EC90E09C838B838B819C811D
:101AB0000197F1F79C838B838D819E8101979E8393
:101AC0008D838D819E81009769F714C06F81788521
:101AD00089859A850E944100DC01CB019E838D831C
:101AE0008D819E819A83898389819A810197F1F7FB
:101AF0009A838983E9960FB6F894DEBF0FBECDBFF7
:101B0000CF91DF910895DF93CF9300D00F92CDB79F
:101B1000DEB79B838A83198222C089818F5F898384
:101B2000EA81FB8180810E94720B8A819B810196F0
:101B30009B838A838981803129F481E060E00E945F
:101B4000E7060DC08981803219F08981813239F42C
:101B50000E94BA0F80E060E00E94E7061982EA81E5
:101B6000FB8180818823C9F60F900F900F90CF9151
:101B7000DF9108950F931F93DF93CF9300D000D090
:101B800000D0CDB7DEB76B837C838D839E8381E0ED
:101B900090E09A8389838B819C81AD81BE81BB2338
:101BA00094F48DE20E94720B8B819C81AD81BE8189
:101BB000B095A095909581959F4FAF4FBF4F8B8368
:101BC0009C83AD83BE838B819C81AD81BE81009758
:101BD000A105B105A9F580E30E94720B31C089818E
:101BE0009A819C01220F331FC901880F991F880F0A
:101BF000991F820F931F8C018B819C81AD81BE81C7
:101C00002AE030E040E050E0BC01CD010E94C7175F
:101C1000DC01CB01800F911F9A8389838B819C818A
:101C2000AD81BE812AE030E040E050E0BC01CD0152
:101C30000E94C717DA01C9018B839C83AD83BE83E1
:101C40008B819C81AD81BE810097A105B10539F6DC
:101C500014C089819A812AE030E0B9010E94B4174A
:101C6000805D0E94720B89819A812AE030E0B9017F
:101C70000E94B417CB019A83898389819A8181302C
:101C8000910539F726960FB6F894DEBF0FBECDBF8B
:101C9000CF91DF911F910F910895DF93CF93CDB72F
:101CA000DEB76D970FB6F894DEBF0FBECDBF1D8EA9
:101CB00081E064E040E00E94211281E065E040E0C4
:101CC0000E94211281E066E040E00E94211281E042
:101CD00067E040E00E94211281E061E040E00E9464
:101CE0009C1481E062E041E00E949C1481E063E08A
:101CF00041E00E949C1480E090E0A0E8BFE3898F5F
:101D00009A8FAB8FBC8F698D7A8D8B8D9C8D20E0E7
:101D100030E04AEF54E40E941702DC01CB018D8BC6
:101D20009E8BAF8BB88F6D897E898F89988D20E0CF
:101D300030E040E85FE30E941D0488232CF481E03A
:101D400090E09C8B8B8B3FC06D897E898F89988DAD
:101D500020E03FEF4FE757E40E94BD0318164CF513
:101D6000698D7A8D8B8D9C8D20E030E040E251E4CE
:101D70000E941702DC01CB01BC01CD010E94410091
:101D8000DC01CB019C8B8B8B0FC088EC90E09A8B95
:101D9000898B89899A890197F1F79A8B898B8B892D
:101DA0009C8901979C8B8B8B8B899C89009769F709
:101DB00014C06D897E898F89988D0E944100DC0155
:101DC000CB019C8B8B8B8B899C89988B8F878F8584
:101DD00098890197F1F7988B8F8781E063E040E065
:101DE0000E949C1480E090E0A0E2B1E48B879C8785
:101DF000AD87BE876B857C858D859E8520E030E034
:101E00004AEF54E40E941702DC01CB018F839887CC
:101E1000A987BA876F81788589859A8520E030E027
:101E200040E85FE30E941D0488232CF481E090E0E9
:101E30009E838D833FC06F81788589859A8520E058
:101E40003FEF4FE757E40E94BD0318164CF56B8532
:101E50007C858D859E8520E030E040E251E40E9443
:101E60001702DC01CB01BC01CD010E944100DC0165
:101E7000CB019E838D830FC088EC90E09C838B8385
:101E80008B819C810197F1F79C838B838D819E814F
:101E900001979E838D838D819E81009769F714C081
:101EA0006F81788589859A850E944100DC01CB018C
:101EB0009E838D838D819E819A83898389819A8176
:101EC0000197F1F79A83898381E064E041E00E9401
:101ED000211281E065E041E00E94211281E066E08C
:101EE00041E00E94211281E067E041E00E9421125E
:101EF0006D960FB6F894DEBF0FBECDBFCF91DF91C8
:101F00000895DF93CF93CDB7DEB728970FB6F89437
:101F1000DEBF0FBECDBF6D837E838F83988719820E
:101F20001A821B821C8219821A821B821C820CC09C
:101F3000000089819A81AB81BC810196A11DB11DF0
:101F400089839A83AB83BC8329813A814B815C81ED
:101F50008D819E81AF81B885281739074A075B07B5
:101F600038F328960FB6F894DEBF0FBECDBFCF91E1
:101F7000DF910895DF93CF93CDB7DEB76C970FB69F
:101F8000F894DEBF0FBECDBF81E00E94CD0880E097
:101F900090E0A0E0B0E4898F9A8FAB8FBC8F698D01
:101FA0007A8D8B8D9C8D20E030E04AEF54E40E94C6
:101FB0001702DC01CB018D8B9E8BAF8BB88F6D89A7
:101FC0007E898F89988D20E030E040E85FE30E94B1
:101FD0001D0488232CF481E090E09C8B8B8B3FC008
:101FE0006D897E898F89988D20E03FEF4FE757E418
:101FF0000E94BD0318164CF5698D7A8D8B8D9C8DD2
:1020000020E030E040E251E40E941702DC01CB0105
:10201000BC01CD010E944100DC01CB019C8B8B8B6C
:102020000FC088EC90E09A8B898B89899A890197F7
:10203000F1F79A8B898B8B899C8901979C8B8B8B71
:102040008B899C89009769F714C06D897E898F8977
:10205000988D0E944100DC01CB019C8B8B8B8B897E
:102060009C89988B8F878F8598890197F1F7988B3A
:102070008F8780E80E94CD0880E090E0A0E0B0E487
:102080008B879C87AD87BE876B857C858D859E857C
:1020900020E030E04AEF54E40E941702DC01CB015B
:1020A0008F839887A987BA876F81788589859A8574
:1020B00020E030E040E85FE30E941D0488232CF418
:1020C00081E090E09E838D833FC06F817885898514
:1020D0009A8520E03FEF4FE757E40E94BD031816B2
:1020E0004CF56B857C858D859E8520E030E040E257
:1020F00051E40E941702DC01CB01BC01CD010E941A
:102100004100DC01CB019E838D830FC088EC90E001
:102110009C838B838B819C810197F1F79C838B83BC
:102120008D819E8101979E838D838D819E810097F5
:1021300069F714C06F81788589859A850E9441006E
:10214000DC01CB019E838D838D819E819A8389835F
:1021500089819A810197F1F79A8389836C960FB6EA
:10216000F894DEBF0FBECDBFCF91DF910895DF930E
:10217000CF93CDB7DEB780E10E94CD08CF91DF913C
:102180000895DF93CF93CDB7DEB784E10E94CD08E9
:10219000CF91DF910895DF93CF93CDB7DEB783E082
:1021A00062E041E00E94211283E063E041E00E948E
:1021B000211283E064E041E00E94211283E062E0AA
:1021C00041E00E949C1483E063E041E00E949C1483
:1021D00083E064E041E00E949C1483E065E042E01B
:1021E0000E94211283E066E042E00E94211283E017
:1021F00067E042E00E942112CF91DF910895DF93C2
:10220000CF93CDB7DEB7A7970FB6F894DEBF0FBE5A
:10221000CDBF8FEF8F831886CE0109969A8F898F55
:10222000EEE7F0E0FC8FEB8FF9E0FD8FEB8DFC8D9E
:1022300000808B8D9C8D01969C8F8B8FE98DFA8D04
:102240000082898D9A8D01969A8F898F9D8D9150EC
:102250009D8FED8DEE2351F7CE0142969F8F8E8F8D
:10226000EBE7F0E0F9A3E8A3F3E0FAA3E8A1F9A112
:10227000008088A199A1019699A388A3EE8DFF8D76
:1022800000828E8D9F8D01969F8F8E8F9AA1915087
:102290009AA3EAA1EE2351F7CE0145969CA38BA306
:1022A000E8E7F0E0FEA3EDA3F3E0FFA3EDA1FEA1BC
:1022B00000808DA19EA101969EA38DA3EBA1FCA100
:1022C00000828BA19CA101969CA38BA39FA19150FE
:1022D0009FA3EFA1EE2351F71E8295C08E81282F78
:1022E00030E0CE014296FC01E20FF31F908183E0C3
:1022F000692F40E00E949C141D8270C08D81282FA0
:1023000030E0CE014596FC01E20FF31F90819E0163
:10231000285F3F4F83E0692FA9010E940D16888531
:10232000882309F058C08E81282F30E08D81482FF6
:1023300050E0C901880F991F820F931F9E012F5FE4
:102340003F4F820F931F840F951FFC0138968081A9
:102350008F8319821A821B821C820BC089819A8109
:10236000AB81BC810196A11DB11D89839A83AB838A
:10237000BC8389819A81AB81BC818035F3EC9F0756
:10238000F0E0AF07F0E0BF0748F311C08D81282FC0
:1023900030E0CE014596FC01E20FF31F90819E01D3
:1023A000285F3F4F83E0692FA9010E940D168885A1
:1023B000882361F38D81282F30E0CE014296FC0105
:1023C000E20FF31F908183E0692F41E00E949C148B
:1023D0002F81288F1EC08D818F5F8D838D818330EB
:1023E00008F48CCF8E81282F30E0CE014296FC017C
:1023F000E20FF31F908183E0692F41E00E949C145B
:102400008E818F5F8E838E81833008F467CF8F81BA
:10241000888F888DA7960FB6F894DEBF0FBECDBF0C
:10242000CF91DF910895DF93CF93CDB7DEB7AFE5BE
:10243000B0E0EFE5F0E0808180688C93CF91DF9190
:102440000895DF93CF93CDB7DEB72A970FB6F894F0
:10245000DEBF0FBECDBF89836A834B838A818830FC
:1024600018F02FEF2A87D1C18B81813009F07BC012
:102470008981282F30E0398728878885998582309F
:10248000910569F1288539852330310534F4888533
:1024900099858130910569F063C02885398523309D
:1024A000310591F1888599858430910509F442C000
:1024B00057C0AAE3B0E0EAE3F0E08081482F8A81C8
:1024C000282F30E081E090E0022E02C0880F991F93
:1024D0000A94E2F7842B8C9391E09A8796C1A7E344
:1024E000B0E0E7E3F0E08081482F8A81282F30E0D8
:1024F00081E090E002C0880F991F2A95E2F7842BB3
:102500008C9321E02A8781C1A4E3B0E0E4E3F0E00A
:102510008081482F8A81282F30E081E090E0022ED0
:1025200002C0880F991F0A94E2F7842B8C9331E044
:102530003A876BC1A1E3B0E0E1E3F0E08081482F8E
:102540008A81282F30E081E090E0022E02C0880FBF
:10255000991F0A94E2F7842B8C9381E08A8755C1F6
:102560009EEF9A8752C18B81882309F07FC08981B1
:10257000282F30E03F832E838E819F81823091050A
:1025800071F12E813F812330310534F48E819F819A
:102590008130910569F067C02E813F81233031057C
:1025A000A1F18E819F818430910509F445C05BC003
:1025B000AAE3B0E0EAE3F0E08081482F8A81282F87
:1025C00030E081E090E0022E02C0880F991F0A944B
:1025D000E2F7809584238C9391E09A8716C1A7E354
:1025E000B0E0E7E3F0E08081482F8A81282F30E0D7
:1025F00081E090E002C0880F991F2A95E2F780954C
:1026000084238C9321E02A8700C1A4E3B0E0E4E3B3
:10261000F0E08081482F8A81282F30E081E090E02F
:10262000022E02C0880F991F0A94E2F78095842336
:102630008C9331E03A87E9C0A1E3B0E0E1E3F0E058
:102640008081482F8A81282F30E081E090E0022E9F
:1026500002C0880F991F0A94E2F7809584238C9317
:1026600081E08A87D2C09EEF9A87CFC08B8182306B
:1026700009F0C9C08981282F30E03D832C838C81EB
:102680009D818230910509F441C02C813D81233028
:10269000310534F48C819D818130910571F0B0C099
:1026A0002C813D812330310509F458C08C819D81F6
:1026B0008430910509F47BC0A3C0AAE3B0E0EAE34B
:1026C000F0E08081482F8A81282F30E081E090E07F
:1026D00002C0880F991F2A95E2F7809584238C9376
:1026E000ABE3B0E0EBE3F0E08081482F8A81282F54
:1026F00030E081E090E0022E02C0880F991F0A941A
:10270000E2F7842B8C9391E09A877FC0A7E3B0E037
:10271000E7E3F0E08081482F8A81282F30E081E0D4
:1027200090E002C0880F991F2A95E2F780958423D4
:102730008C93A8E3B0E0E8E3F0E08081482F8A8141
:10274000282F30E081E090E002C0880F991F2A9581
:10275000E2F7842B8C9321E02A8757C0A4E3B0E0F2
:10276000E4E3F0E08081482F8A81282F30E081E087
:1027700090E002C0880F991F2A95E2F78095842384
:102780008C93A5E3B0E0E5E3F0E08081482F8A81F7
:10279000282F30E081E090E0022E02C0880F991FC0
:1027A0000A94E2F7842B8C9331E03A872EC0A1E3A0
:1027B000B0E0E1E3F0E08081482F8A81282F30E00B
:1027C00081E090E002C0880F991F2A95E2F780957A
:1027D00084238C93A2E3B0E0E2E3F0E08081482F11
:1027E0008A81282F30E081E090E0022E02C0880F1D
:1027F000991F0A94E2F7842B8C9381E08A8705C0A5
:102800009EEF9A8702C02DEF2A878A852A960FB6F7
:10281000F894DEBF0FBECDBFCF91DF910895DF9357
:10282000CF9300D000D00F92CDB7DEB789836A83F3
:102830008981282F30E03D832C838C819D818230DB
:10284000910569F12C813D812330310534F48C816F
:102850009D818130910569F064C02C813D812330D8
:10286000310599F18C819D818430910509F443C033
:1028700058C08A81813039F4EAE3F0E08FEF808339
:1028800091E09B8350C08A81882331F4EAE3F0E031
:10289000108221E02B8347C03FEF3B8344C08A81F5
:1028A000813039F4E7E3F0E08FEF808381E08B83C0
:1028B0003AC08A81882331F4E7E3F0E0108291E0A6
:1028C0009B8331C02FEF2B832EC08A81813039F456
:1028D000E4E3F0E08FEF808331E03B8324C08A8122
:1028E000882331F4E4E3F0E0108281E08B831BC0A5
:1028F0009FEF9B8318C08A81813039F4E1E3F0E0D7
:102900008FEF808321E02B830EC08A81882331F4EE
:10291000E1E3F0E0108231E03B8305C08FEF8B8371
:1029200002C09FEF9B838B810F900F900F900F90B1
:102930000F90CF91DF910895DF93CF93CDB7DEB79E
:1029400028970FB6F894DEBF0FBECDBF89836A8388
:102950004B838A81883018F02FEF288704C18B8140
:10296000813009F07BC08981282F30E03F832E839E
:102970008E819F818230910569F12E813F812330C4
:10298000310534F48E819F818130910569F063C0F7
:102990002E813F812330310591F18E819F818430DA
:1029A000910509F442C057C0ABE3B0E0EBE3F0E0BF
:1029B0008081482F8A81282F30E081E090E0022E2C
:1029C00002C0880F991F0A94E2F7842B8C9391E040
:1029D0009887C9C0A8E3B0E0E8E3F0E08081482F21
:1029E0008A81282F30E081E090E002C0880F991F93
:1029F0002A95E2F7842B8C9321E02887B4C0A5E3C5
:102A0000B0E0E5E3F0E08081482F8A81282F30E0B4
:102A100081E090E0022E02C0880F991F0A94E2F72D
:102A2000842B8C9331E038879EC0A2E3B0E0E2E3D0
:102A3000F0E08081482F8A81282F30E081E090E00B
:102A4000022E02C0880F991F0A94E2F7842B8C9300
:102A500081E0888788C09EEF988785C08B81882316
:102A600009F07FC08981282F30E03D832C838C8141
:102A70009D818230910571F12C813D81233031059A
:102A800034F48C819D818130910569F067C02C817F
:102A90003D8123303105A1F18C819D8184309105E8
:102AA00009F445C05BC0ABE3B0E0EBE3F0E080814C
:102AB000482F8A81282F30E081E090E0022E02C06A
:102AC000880F991F0A94E2F7809584238C9391E0F4
:102AD000988749C0A8E3B0E0E8E3F0E08081482FA0
:102AE0008A81282F30E081E090E002C0880F991F92
:102AF0002A95E2F7809584238C9321E0288733C0C0
:102B0000A5E3B0E0E5E3F0E08081482F8A81282F3B
:102B100030E081E090E0022E02C0880F991F0A94F5
:102B2000E2F7809584238C9331E038871CC0A2E3C0
:102B3000B0E0E2E3F0E08081482F8A81282F30E086
:102B400081E090E0022E02C0880F991F0A94E2F7FC
:102B5000809584238C9381E0888705C09EEF9887B9
:102B600002C02DEF2887888528960FB6F894DEBF1F
:102B70000FBECDBFCF91DF910895DF93CF9300D0EB
:102B800000D00F92CDB7DEB789836A838981282F61
:102B900030E03D832C838C819D8182309105E9F06A
:102BA0002C813D812330310534F48C819D8181302D
:102BB000910561F027C02C813D8123303105A1F0C2
:102BC0008C819D8184309105B1F01CC0EBE3F0E075
:102BD0008A81808391E09B8317C0E8E3F0E08A81DB
:102BE000808321E02B8310C0E5E3F0E08A818083BD
:102BF00031E03B8309C0E2E3F0E08A81808381E039
:102C00008B8302C09FEF9B838B810F900F900F905F
:102C10000F900F90CF91DF910895DF93CF93CDB7B1
:102C2000DEB727970FB6F894DEBF0FBECDBF8983FE
:102C30006A835C834B838A81883018F02FEF2F835F
:102C40007BC08981482F50E05E834D838D819E81BA
:102C50008230910569F12D813E812330310534F4B4
:102C60004D815E814130510569F064C08D819E8146
:102C70008330910599F12D813E812430310509F48D
:102C800043C058C0E9E3F0E08081282F30E08A811A
:102C9000882F90E0A90102C0559547958A95E2F7E3
:102CA000CA018170EB81FC81808351E05F8344C065
:102CB000E6E3F0E08081282F30E08A81882F90E0E1
:102CC000A90102C0559547958A95E2F7CA0181701E
:102CD000EB81FC81808351E05F832EC0E3E3F0E071
:102CE0008081282F30E08A81882F90E0A90102C0DE
:102CF000559547958A95E2F7CA018170EB81FC8171
:102D0000808351E05F8318C0E0E3F0E08081282FEA
:102D100030E08A81882F90E0A90102C0559547953F
:102D20008A95E2F7CA018170EB81FC81808351E0D2
:102D30005F8302C08EEF8F838F8127960FB6F89442
:102D4000DEBF0FBECDBFCF91DF910895DF93CF934C
:102D500000D000D000D0CDB7DEB789837B836A83F3
:102D60008981282F30E03E832D838D819E818230A2
:102D70009105F9F02D813E812330310534F48D81A8
:102D80009E818130910561F02FC02D813E812330DD
:102D90003105C1F08D819E8184309105E1F024C020
:102DA000E9E3F0E08081EA81FB81808391E09C830C
:102DB0001DC0E6E3F0E08081EA81FB81808321E0B1
:102DC0002C8314C0E3E3F0E08081EA81FB818083FF
:102DD00031E03C830BC0E0E3F0E08081EA81FB81DD
:102DE000808381E08C8302C09EEF9C838C81269639
:102DF0000FB6F894DEBF0FBECDBFCF91DF9108951F
:102E0000DF93CF9300D000D00F92CDB7DEB7898388
:102E10006A838A81883018F02FEF2D837AC08981E8
:102E2000282F30E03C832B838B819C81823091055D
:102E300069F12B813C812330310534F48B819C81F5
:102E40008130910569F063C02B813C8123303105CD
:102E500091F18B819C818430910509F442C057C067
:102E6000ABE3B0E0EBE3F0E08081482F8A81282FCC
:102E700030E081E090E0022E02C0880F991F0A9492
:102E8000E2F784278C9391E09D8343C0A8E3B0E0F0
:102E9000E8E3F0E08081482F8A81282F30E081E04C
:102EA00090E002C0880F991F2A95E2F784278C933F
:102EB00021E02D832EC0A5E3B0E0E5E3F0E08081C2
:102EC000482F8A81282F30E081E090E0022E02C056
:102ED000880F991F0A94E2F784278C9331E03D8391
:102EE00018C0A2E3B0E0E2E3F0E08081482F8A81DD
:102EF000282F30E081E090E0022E02C0880F991F59
:102F00000A94E2F784278C9381E08D8302C09EEFC0
:102F10009D838D810F900F900F900F900F90CF9108
:102F2000DF910895DF93CF930F92CDB7DEB719826B
:102F30000E9447060E94CB1080E690E00E94830D1D
:102F400081E065E00E94E7060E94FF108983898185
:102F50008F3FD1F38981882F90E0A0E0B0E0BC01E1
:102F6000CD010E94BA0DF0CF97FB092E07260AD09B
:102F700077FD04D027D006D000201AF47095619513
:102F80007F4F0895F6F7909581959F4F089597FB91
:102F9000092E05260ED057FD04D028D00AD0001CDB
:102FA00038F450954095309521953F4F4F4F5F4FE6
:102FB0000895F6F790958095709561957F4F8F4FA6
:102FC0009F4F0895AA1BBB1B51E107C0AA1FBB1F3F
:102FD000A617B70710F0A61BB70B881F991F5A95A5
:102FE000A9F780959095BC01CD010895A1E21A2E14
:102FF000AA1BBB1BFD010DC0AA1FBB1FEE1FFF1F9D
:10300000A217B307E407F50720F0A21BB30BE40BEC
:10301000F50B661F771F881F991F1A9469F7609533
:103020007095809590959B01AC01BD01CF010895ED
:103030002F923F924F925F926F927F928F929F92C8
:10304000AF92BF92CF92DF92EF92FF920F931F93B6
:10305000CF93DF93CDB7DEB7CA1BDB0B0FB6F89467
:10306000DEBF0FBECDBF09942A88398848885F84A7
:103070006E847D848C849B84AA84B984C884DF8018
:10308000EE80FD800C811B81AA81B981CE0FD11DFC
:103090000FB6F894DEBF0FBECDBFED010895F894D2
:0230A000FFCF60
:1030A200546865206E756D626572206973203A00FE
:1030B20000000000000000000506070203040102F0
:0830C2000304050607080900DC
:00000001FF
